:100000000C94F4010C9411020C9411020C94110242
:100010000C9411020C9411020C9411020C94110214
:100020000C9411020C9411020C9408240C94DA2400
:100030000C94E11E0C9411020C9411020C94110208
:100040000C9411020C9411020C9411020C941102E4
:100050000C9411020C94861F0C9411020C94110242
:100060000C9411020C9411020C9411020C941102C4
:100070000C9411020C9411020C9411020C941102B4
:100080000C9411020C9411020C9411020C941102A4
:100090000C942A1D0C9411020C9411020C94110260
:1000A0000C9411020C9411020C941102D004D0048F
:1000B000FC04FC04640582059A069A068D05260652
:1000C0003706370642256925612669256126B5254B
:1000D000D82561262F263E262B0014001A00090081
:1000E00013000500290004001500160017000A007F
:1000F00012591B000600070019001D00E000E30074
:10010000E20002512A0000000D000F0018001C0040
:10011000330034001000110008000C001200280009
:100120000E000B00360037003800125900002C007A
:10013000045150004F0000002B0014001A00090069
:1001400013000500290004001500160017000A001E
:1001500012591B000600070019001D00E000E30013
:10016000E20002512A0000000D000F0018001C00E0
:10017000330034001000110008000C0012002800A9
:100180000E000B002F0230023800125900002C0024
:10019000000050004F00000035001E001F0020002E
:1001A00021002200290000000000000000000000E3
:1001B000325900000000075D075D065DE000E300C6
:1001C000E20002512A00000023002400250026003E
:1001D0002700310000002D002E000000360228000C
:1001E000000000002F0230020000325900002C00F5
:1001F000045152005100000035001E001F00200075
:100200002100220029000000000000000000000082
:10021000325946000000045D055D065DE000E30024
:10022000E20000002A000000230024002500260030
:100230002700310000002D002E00000037022800AA
:1002400000000000000000000000325900002C00F7
:1002500000005200510000002B003A003B003C001F
:100260003D003E0029004400450068006800690028
:1002700000006F007000710072007300E000E30086
:10028000E20000004C0000003F004000410042003E
:10029000430000006A006B006C006D006E002800D7
:1002A000EF00ED00EE00F000F100F20000002C0085
:1002B00004510000000000000E034E004700430000
:1002C00032003000360000001203480061006E006A
:1002D00064007700690072006500000004030904EF
:1002E00009023B00020100A0FA0904000001030119
:1002F00001000921110100012240000705810308C6
:10030000000109040100010300000009211101009E
:1003100001227B0007058203200001120100020078
:10032000000008444D44520100010200010501098A
:1003300002A10185020901A1000509190129081579
:100340000025019508750181020501093009311563
:1003500081257F95027508810609381581257F95CD
:100360000175088106050C0A38021581257F950163
:1003700075088106C0C005010980A1018503190126
:100380002AB700150126B700950175108100C00538
:100390000C0901A101850419012AA002150126A05A
:1003A00002950175108100C005010906A10105072C
:1003B00019E029E7150025019508750181029501CD
:1003C000750881010507190029FF150026FF009512
:1003D0000675088100050819012905950575019123
:1003E00002950175039101C011241FBECFEFDAE021
:1003F000DEBFCDBF11E0A0E0B1E0E0ECFEE402C062
:1004000005900D92A03BB107D9F722E0A0EBB1E037
:1004100001C01D92A03BB207E1F70E9465150C9444
:100420005E270C94000081E0089581E008950E9409
:100430001502089508950E941A020895A5E0B0E0FB
:10044000E4E2F2E00C94DE2649835A833091B30152
:1004500089819A81311114C0662359F0222349F011
:100460000E94F408182F682F89819A810E94D00871
:1004700003C00E94E208182F69817A81812F04C08D
:100480000E94F40869817A810E94D30F2596E3E0E7
:100490000C94FA26FC01262F4081518162817381E0
:1004A00084810E941E02089581E00895CF93DF9316
:1004B000EC0160E00E944A02BE010E941B02DF9133
:1004C000CF9108950E944A1108950E944411089501
:1004D00008950E941D070E9468022FEF84E39CE0AC
:1004E000215080409040E1F700C0000008950E9434
:1004F00069020E94AC1F08950E9469020E94BD1FFC
:1005000008950F931F93CF93DF938C0161E00E94B6
:100510004A02EC01B8010E941702882309F440C086
:10052000B801CE010E94701B8823D1F1B801CE0121
:100530000E9415188823A1F1B801CE010E94D61A95
:10054000882371F1F8018281882331F1CB358DE563
:10055000D807E9F050F4C115FCE5DF0779F0CF3D8D
:10056000DC45D1F40E94EF0D0CC0CD35EDE5DE0782
:1005700059F080F0C83ADD4521F00EC00E947702A4
:100580000FC00E947C020CC00E942D0D05C00E946D
:10059000370D02C00E943B0DC8010E94130201C02A
:1005A00080E0DF91CF911F910F9108950E94BA1EB4
:1005B0000E94F30208950E94F7020E94C31E08954C
:1005C00008950E94E002089581E008950E94E402E7
:1005D00008950895CF93C82F0E94E1028C2F0E94A6
:1005E000E602CF91089580E00E94EA0208950E94F9
:1005F000E41D0E94EA0208950E94E41D9091B20158
:10060000891721F08093B2010E94EA020895ABE0BD
:10061000B0E0EDE0F3E00C94DF264F835887698764
:100620007A878B8761110E94750C9E012F5F3F4F67
:1006300086E0F90111928A95E9F785E0FE01379687
:10064000D90101900D928A95E1F789819A814C81B7
:100650005D81452B31F09F3F31F491E08F3F19F4DC
:1006600003C091E001C090E090FF09C049815A8128
:100670006B817C818D819E810E94A10B05C0C90187
:100680000E9454028111F2CF2B96E2E00C94FB26DB
:10069000FC01808191810E942E090895CF938823C7
:1006A00009F4A8C0C82F8238C1F40E94E41D81FD5E
:1006B000A1C069E380910001909101010E947F1E19
:1006C0000E94990C2FEF81EE94E0215080409040E1
:1006D000E1F700C0000069E319C0833801F50E940A
:1006E000E41D80FD87C063E58091000190910101C8
:1006F0000E947F1E0E94990C2FEF81EE94E0215002
:1007000080409040E1F700C0000063E58091000167
:10071000909101010E94821E0E94990C6BC0843846
:10072000C1F40E94E41D82FD65C067E48091000170
:10073000909101010E947F1E0E94990C2FEF81EE83
:1007400094E0215080409040E1F700C0000067E451
:10075000DDCF8CEF8C0F813AF8F48C2F0E948D1A2C
:10076000811148C06C2F80910001909101010E947D
:10077000491E882349F06C2F80910001909101015E
:100780000E94821E0E94990C6C2F80910001909112
:1007900001010E947F1EC0CF80E28C0F883048F498
:1007A000C77081E001C0880FCA95EAF70E94580C13
:1007B000B3CFEBE5EC0FE33040F4F0E0E658FE4F4A
:1007C000808190E00E94111E15C0E8E5EC0FE73132
:1007D00050F4F0E0EE0FFF1FE45BFE4F808191814B
:1007E0000E94271E07C0CD3E28F08C2F0E94EA15DC
:1007F0000E94BC16CF910895882309F467C08238FF
:1008000079F40E94E41D81FF61C069E380910001D9
:10081000909101010E947F1E0E94990C69E310C013
:100820008338B9F40E94E41D80FF50C063E58091D5
:100830000001909101010E947F1E0E94990C63E5C6
:1008400080910001909101010E94821E0E94990CEA
:100850000895843879F40E94E41D82FF37C067E46C
:1008600080910001909101010E947F1E0E94990CCD
:1008700067E4E6CF9CEF980F913A10F4682FE0CF31
:1008800090E2980F983050F4877091E001C0990F72
:100890008A95EAF7892F0E945E0CD8CF9BE5980FC6
:1008A000933028F480E090E00E94111E089598E5AE
:1008B000980F973128F480E090E00E94271E089559
:1008C0008D3E20F00E9445160E94BC1608951F938D
:1008D000CF93DF93182FEB010E944E03209741F036
:1008E0008FE99FE00197F1F700C000002197F6CF54
:1008F000812F0E94FC03DF91CF911F9108958933CE
:1009000019F060E070E002C060E570E00E946704EA
:100910000895882321F00E94580C0E94990C089594
:10092000882321F00E945E0C0E94990C0895A0E09B
:10093000B0E0EDE9F4E00C94D9267C01D62FC72F66
:10094000FC011281058102950F700E944E0C8823D4
:10095000B9F01123A9F08C2F807F803421F080E240
:100960008D0F883068F08091820282FF09C082E09A
:100970000E94FB0C0E944E0C91E0D82ED92601C09B
:10098000D12CCC2EC2948FE0C8228C2D90E08C30DC
:10099000910508F0CFC1FC01EA5AFF4F0C94C9261B
:1009A0008C2F807FCF70882311F0C295C07F1123D8
:1009B00099F0CC2309F4AAC180E28D0F883010F0A1
:1009C000D11104C08C2F0E94580C03C08C2F0E94A0
:1009D000680C0E94990C9AC18D2F0E94FC03CC23B5
:1009E00009F4A8C180E28D0F883038F1DD2329F1A8
:1009F0008C2F0E946E0C24C08C2F807FCF70803291
:100A000011F0C295C07FDD2319F0D130A1F13DC0B6
:100A10008091820282FD17C0112349F0CC2329F076
:100A20008C2F0E94580C0E94990C80E070C180E0CD
:100A30000E94FC03CC2309F47DC18C2F0E945E0C24
:100A40000E94990C77C1112371F0002341F001300D
:100A500031F40E94780C8C2B0E94820C6BC10E9496
:100A6000780C8C2B1DC0002319F0013009F462C1F1
:100A70000E948F0C25C0112321F0063008F05AC1C6
:100A80000EC0053008F056C11BC0112361F00023D1
:100A900031F0F701858180FF39C18F7085838C2FFC
:100AA0000E94890447C1002359F0D93309F03FC19E
:100AB000FFEF07EE13E0F15000401040E1F735C1C1
:100AC0008C2F0E94900436C18C2F8695869583705A
:100AD00019F0813061F02EC1112321F08D2F9C2F50
:100AE000937002C080E090E00E94111E2BC1112380
:100AF00021F08D2F9C2F937002C080E090E00E9427
:100B0000271E20C18D2F112319F00E94EA1502C063
:100B10000E9445160E94BC1615C18C2F837009F0E7
:100B200047C011110BC12D2F229526952770220F3A
:100B3000220F6D2F6F70862F90E0A0E0B0E0022EA4
:100B400004C0880F991FAA1FBB1F0A94D2F7D4FFB5
:100B500010C04FE050E060E070E004C0440F551F4B
:100B6000661F771F2A95D2F740955095609570952E
:100B700003C040E050E0BA01C695C695C3708A0133
:100B80009B01082B192B2A2B3B2BC901B801C23022
:100B900049F058F4C13019F00E948407CFC00E9478
:100BA0007107CCC00E949707C9C00E946E07C6C0DB
:100BB000112319F08C2F817001C08695882309F4C8
:100BC000BDC02D2F229526952770220F220F6D2F45
:100BD0006F70862F90E0A0E0B0E0022E04C0880F76
:100BE000991FAA1FBB1F0A94D2F7D4FF10C04FE071
:100BF00050E060E070E004C0440F551F661F771F8F
:100C00002A95D2F7409550956095709503C040E0C5
:100C100050E0BA01C695C695C3708A019B01082BA6
:100C2000192B2A2B3B2BC901B801C23049F058F4CB
:100C3000C13019F00E94530881C00E9440087EC054
:100C40000E9466087BC00E94AD0778C0CF70112358
:100C500039F08C2F0E94D6078D2F0E9489046EC018
:100C60008D2F0E9490048C2F0E94F80767C0D23FFE
:100C700021F128F4D03F41F0D13FC1F043C0D33F30
:100C800019F1D43F79F03EC0112341F0053008F04E
:100C900051C08C2F8F710E941E084CC0063008F086
:100CA00049C0F7CF8091820282FD18C0112339F02C
:100CB0008C2F8F710E94D6073DC01123C9F38C2F52
:100CC0008F710E94F80736C0112329F08C2F8F7185
:100CD0000E94C0072FC00E94BA072CC0112349F000
:100CE000CF718C2F0E94D60763E08C2F0E94DD0C01
:100CF00021C081E00E94FB0C0230E0F082E00E9403
:100D0000FB0C18C0112331F0002391F28D2F0E94AB
:100D10004E0310C0002399F2D93349F41FEF27EE98
:100D200033E0115020403040E1F700C000008D2F2B
:100D30000E94FC0388EF8C0D843020F40E94E41D97
:100D40000E94EA02DD2089F00E944A0C80FD0DC05D
:100D5000F70112820E94440C0E94D607C7010E942C
:100D6000D2060E94440C0E94F807CDB7DEB7E8E037
:100D70000C94F5260F931F93CF93DF93EC016881BA
:100D800079818A810E9439098C010E9479080E9428
:100D90005907B801CE010E949704DF91CF911F91AE
:100DA0000F910895CF93DF93EC01988189812B8176
:100DB0003C81232B31F08F3F31F481E09F3F19F4C8
:100DC00003C081E001C080E080FD1AC0CE010E9416
:100DD000810281110FC00E944E0C882389F08A8104
:100DE000882371F08091820282FF0AC082E00E9413
:100DF000FB0C06C0CE010E94BA06CE010E9456022C
:100E0000DF91CF91089580E090E00E94111E80E074
:100E100090E00E94271E0E94750C0E94990C0E946F
:100E2000DB160E94BC16089580910001909101018B
:100E30000E94851E0E94030708950E94650C0E946F
:100E40001407089592959F70963079F010F492509F
:100E500001C09A50923068F4803F69F018F4883EDF
:100E600040F409C0843F29F406C0883E20F0813F49
:100E700011F080E0089581E00895FC018081918166
:100E80000E942E090E9422070895A5E0B0E0EBE43D
:100E9000F7E00C94DF262596E2E00C94FB26A6E012
:100EA000B0E0E5E5F7E00C94DF262696E2E00C944E
:100EB000FB26089508950E945A0708950E945B0733
:100EC00008950E945E076093D6017093D7018093C6
:100ED000D8019093D9010E94030708950E946107E9
:100EE00008950F931F930091D6011091D70120917F
:100EF000D8013091D901602B712B822B932B0E944A
:100F000061071F910F9108950F931F930091D601D0
:100F10001091D7012091D8013091D901602371231C
:100F2000822393230E9461071F910F9108950F93CD
:100F30001F930091D6011091D7012091D8013091D3
:100F4000D90160277127822793270E9461071F918B
:100F50000F9108950E945A0708950E94AA0760936E
:100F6000D2017093D3018093D4019093D5010E9454
:100F70000307089560E070E0CB010E94AD0708957B
:100F80000F931F9341E050E060E070E08A019B0105
:100F900004C0000F111F221F331F8A95D2F7C90109
:100FA000B8010E94AD071F910F9108950F931F93F1
:100FB00041E050E060E070E004C0440F551F661F40
:100FC000771F8A95D2F78091D2019091D301A09199
:100FD000D401B091D5018A019B01082B192B2A2B32
:100FE0003B2BC901B8010E94AD071F910F910895D5
:100FF0000F931F9341E050E060E070E004C0440FA5
:10100000551F661F771F8A95D2F7409550956095BA
:1010100070958091D2019091D301A091D401B091AB
:10102000D5018A019B01082319232A233B23C901E7
:10103000B8010E94AD071F910F9108950F931F9360
:1010400041E050E060E070E004C0440F551F661FAF
:10105000771F8A95D2F78091D2019091D301A09108
:10106000D401B091D5018A019B01082719272A27AD
:101070003B27C901B8010E94AD071F910F91089548
:101080000F931F930091D2011091D3012091D401AD
:101090003091D501602B712B822B932B0E94AD07D1
:1010A0001F910F9108950F931F930091D2011091FA
:1010B000D3012091D4013091D50160237123822383
:1010C00093230E94AD071F910F9108950F931F93D3
:1010D0000091D2011091D3012091D4013091D5011A
:1010E00060277127822793270E94AD071F910F91D8
:1010F00008950895962F9770A1E001C0AA0F9A95C0
:10110000EAF793E0769567959A95E1F795E0969FD3
:101110009001979F300D1124FA01E20FF31F40E078
:1011200050E0682F70E090819B01042E02C036953C
:1011300027950A94E2F72170219529272A23292748
:1011400021934F5F5F4F4530510569F70895FB01CB
:10115000782F777023E0969587952A95E1F745E0FB
:10116000489F9001499F300D1124E20FF31F40E08A
:1011700050E080E0219130E0072E02C0369527959F
:101180000A94E2F721703327042E01C0220F0A943B
:10119000EAF7822B4F5F5F4F4530510559F70895AD
:1011A000282F983070F4863060F4862F622F70E01C
:1011B00026E0929F600D711D112444EB51E00E94C6
:1011C0007A080895983070F4863060F4292F90E002
:1011D00064EB71E036E0239F800D911D11240E9485
:1011E000A708089580E00895A0E0B0E0EAEFF8E0F5
:1011F0000C94D8268C01C090D201D090D301E090FD
:10120000D401F090D5018091D6019091D701A091A1
:10121000D801B091D901C82AD92AEA2AFB2ACFE1FC
:10122000D0E0D701C6010C2E04C0B695A7959795BE
:1012300087950A94D2F780FD04C0219790F7B12CCE
:1012400007C0BC2EB8018C2F0E94EC0F0197A9F3A8
:101250008B2DCDB7DEB7E9E00C94F426CF93DF9366
:10126000EC010E94F408BE010E94EC0FDF91CF91C7
:1012700008951F93CF93DF93EB019091B3019923CE
:1012800021F0CB010E942E0913C0882349F0CB0125
:101290000E94F408182F682FCE010E94D00804C0C5
:1012A000CB010E94E208182FBE01812F0E94EC0F93
:1012B000DF91CF911F9108951F93CF93DF93C0913A
:1012C000DA0116E08091DB01C81799F0D0E01C9F8D
:1012D000F0011D9FF00D1124E452FE4F4081518119
:1012E00062817381848195810E944F072196C77026
:1012F000E9CFDF91CF911F91089540910C02509159
:101300000D0260910E0270910F0280911002909177
:1013100011020E944F0708950F931F93CF93DF93FD
:101320008091110282958F7009F05AC080910E024F
:10133000882309F455C08091DA011091DB01609196
:101340000C0270910D02C0910F02D091100291E039
:101350006F3F09F090E0292F06E0811709F440C0A3
:10136000209721F07F3F21F030E003C031E001C041
:10137000322F90E030FD31C0089FF001099FF00D41
:101380001124DF01A452BE4F11963C9111973713DF
:1013900024C03C91361321C012963C911297311112
:1013A0001CC013964D915C9114974C1B5D0B483CEF
:1013B000510598F4809111028F7080618093110221
:1013C000EF51FE4F80818F70806180838CE092E0CE
:1013D0000E94D2060E945C0903C001968770BDCFAF
:1013E000DF91CF911F910F910895A1E1B0E0EBEF54
:1013F000F9E00C94D6268C0185E0F801DE011D96FB
:1014000001900D928A95E1F7F801E28090910C022B
:1014100060910D0220910F023091100221153105CB
:1014200031F06F3F31F481E09F3F19F403C081E058
:1014300001C080E0F82FF1709F2E80FD40C1F801BF
:1014400040815181A380B4808CE0C82E82E0D82EE8
:10145000F0900E02F501E21BF30BFF2009F4DAC055
:1014600080911102E83CF10508F096C0282F207FFA
:1014700009F053C0561313C0491311C0FE2CE110DC
:101480000EC08F708061809311020E947D09C60199
:101490000E94D20680911102F80185834DC1A114EA
:1014A000B10431F05F3F31F481E04F3F19F403C0E4
:1014B00081E001C080E080FD03C081E08E2502C094
:1014C00080E090E0F82FF170FF2E80FF1CC080912B
:1014D000DA012091DB0136E0821709F40BC190E0BC
:1014E000389FF001399FF00D1124E452FE4F6181C5
:1014F000561306C06081461303C06281E61203C022
:1015000001968770E9CFFE2CEE2009F415C1809179
:10151000110281608093110254C0561306C0491312
:1015200004C0E11002C0F80199C0C8010E943D0743
:10153000882361F1EE2051F120911102822F8295D2
:101540008F7090E0029774F080910C0290910D02E0
:1015500098878F831986BB86AA862C87CE0107962B
:101560000E94D20686E0F801ACE0B2E001900D9254
:101570008A95E1F70E948C090E947D090AC05617DE
:1015800011F1C8010E943D0781112CC0C8010E94C1
:10159000D206FF24F394D0C0282F207F81F77A2D24
:1015A000B98AA88A6E2D89890E9445078CE092E04D
:1015B0000E94D20686E0F60111928A95E9F70E9410
:1015C0007D09F12CB9C04913DCCFE110DACFF80165
:1015D0008583C8010E94D20686E0F60111928A95A1
:1015E000E9F7AAC0EE2091F220911102822F829594
:1015F0008F7090E002970CF4B5CF80910C0290911F
:101600000D029A8389831B82BD82AC822E83CE0118
:101610000196A6CFE83CF10508F044C0FE2CEE2070
:1016200009F4B4CF561330C049132EC020911102D3
:1016300020FD21C0822F82958F70482F50E04115E8
:101640005105C9F0F80125834F30510541F08F5FF6
:10165000982F9295907F822F8F70892B8583C80158
:101660000E94D20686E0F801ACE0B2E001900D9253
:101670008A95E1F73CC086E0F801ACE0B2E0019069
:101680000D928A95E1F758C0C8010E943D0781116B
:1016900069CF80911102816080931102C8010E947C
:1016A000D2064AC07A2DB98AA88A6E2D89890E94ED
:1016B000450786E0F60111928A95E9F718C0EE20F9
:1016C00009F464CFC8010E943D07F82E882309F46D
:1016D0005DCF86E0F801ACE0B2E001900D928A9512
:1016E000E1F78CE092E00E9448030E948C090E947E
:1016F0007D0922C04D875E878D859E850E942E09BB
:10170000292F22952F70223028F49F7039F08111F3
:1017100005C00BC0243028F49F7049F4805E8830E7
:1017200020F0C8010E94D2069F2CF92C05C0F801B8
:101730009581907F99F7F9CF8F2D6196EBE00C940E
:10174000F226ACE0B0E0E7EAFBE00C94DE264F8343
:10175000588769877A878B879C87CE0107960E9476
:10176000F5098823D1F09F8188852A853B85232B25
:1017700031F08F3F31F481E09F3F19F403C081E0E5
:1017800001C080E080FD47C04F81588569857A851A
:101790008B859C850E944F073EC086E0FE013796F0
:1017A000DE01119601900D928A95E1F7FF81E8859F
:1017B0006A857B856115710531F0EF3F31F481E079
:1017C000FF3F19F403C081E001C080E080FD23C029
:1017D0002091DB0130E0C901019687709927409183
:1017E000DA0150E084179507F1F1F983EA837D83EC
:1017F0006C8396E0929FD001939FB00D1124A45268
:10180000BE4FFE01319601900D929A95E1F78093BB
:10181000DB010E945C0916E08091DA019091DB0106
:10182000891771F1189FC001112484529E4F0E94A4
:10183000F509882329F1E091DA011E9FF0011124B6
:10184000E452FE4F40815181628173818481958190
:101850000E944F078091DA0190E0019687709927E6
:101860008093DA01D9CF0E941D071092DB011092FC
:10187000DA01ECE0F2E086E0DF011D928A95E9F7FB
:101880002C96E3E00C94FA2680911A0285958595B2
:101890008595089580911A028770089590911A0293
:1018A000977081E009F480E0089580912502089501
:1018B00090912502892B809325020895809590911F
:1018C0002502892380932502089510922502089508
:1018D00090912402892B8093240208958095909101
:1018E00024028923809324020895109224020895EB
:1018F00080911B02089508950E947B0C08950E9418
:101900007C0C08959091820292FF08C090911B0276
:10191000981721F080931B020E947F0C08958091FC
:101920001B02882329F010921B0280E00E947F0C8A
:101930000895CF93DF93E0910001F0910101809130
:1019400025028083E0910001F09101019081809156
:101950002402892B808380911B02882381F0E091EF
:101960000001F09101019081892B80838091000119
:10197000909101010E943D1E81110E948F0CC09127
:101980000001D091010148E050E062E172E0CE0137
:101990000E940627892B59F088E0FE01A2E1B2E0FF
:1019A00001900D928A95E1F7CE010E94F81DDF911A
:1019B000CF9108950E947B0C08959091820292FF2E
:1019C00011C098E0899F90011124262B20931A02C0
:1019D0000E94D60780911A028595859585950E946B
:1019E000DA0C08950E94D607089510921A0280E03A
:1019F0000E94DA0C089520911A0280958223809328
:101A00001A02982F977099F430E0482F082E000C96
:101A1000550B2417350759F09091820292FF07C0A9
:101A20008595859585950E94F8070E94F50C089587
:101A30009091820292FB222720F9281769F080FBFF
:101A400092F99093820280918102909182020E9489
:101A5000650D82E00E94FB0C08958091820282FB5A
:101A6000882780F991E089270E94180D089581E068
:101A70000E94180D089580E00E94180D089580E0DE
:101A800090E00E94242721E0883E9E4F09F020E04C
:101A9000822F089582E090E00E941C27089583E041
:101AA00090E00E941C270895CF9384E090E00E946C
:101AB0001C27C82F82E290E00E941C272C2F30E0C8
:101AC000A901582BCA01CF910895CF93C92F682F30
:101AD00084E090E00E942A276C2F82E290E00E942E
:101AE0002A27CF910895AB01BC018FE090E00E94BE
:101AF0003C270895AB01BC0183E190E00E943C27A4
:101B0000089560E070E0CB010E947A0D089560E0D6
:101B100070E0CB010E94730D0E94810D089568EE64
:101B20007EEF80E090E00E94482760E082E090E055
:101B30000E942A2760E083E090E00E942A2710920A
:101B4000D6011092D7011092D8011092D90160E00D
:101B500084E090E00E942A2764E082E290E00E9404
:101B60002A2760E085E090E00E942A2760E086E076
:101B700090E00E942A276FEF87E090E00E942A27DA
:101B800040E050E0BA0188E090E00E943C2760E02D
:101B90008DE090E00E942A2740E050E0BA0188E101
:101BA00090E00E943C2760E087E190E00E942A27B5
:101BB00040E050E0BA018CE190E00E943C2760E0F8
:101BC00070E080E290E00E94482740E050E0BA01D7
:101BD00088E190E00E943C270E94870D08950E94B2
:101BE0008F0D08958EE090E00E941C2791E08111F6
:101BF00001C090E0892F0895682F8EE090E00E9448
:101C00002A2708950E944F1F609332027093330277
:101C1000809334029093350260932E0270932F02CA
:101C2000809330029093310208950E941113089519
:101C300008950E94180E08950E94180E08950E949B
:101C40001C0E08950E94180E08950E94220E0895F9
:101C50000E94180E089588E091E10E94DA1D0E940A
:101C6000280E0E94250E08950E94190E0E94180E3B
:101C700008950E940B110E94E90208950E943A1FE4
:101C80000E94C8100E9429130E9440120E94390E1F
:101C90000E94FD170E9433130E941F0E0895AAE0B0
:101CA000B0E0E5E5FEE00C94D5260E949412982E53
:101CB00081110E94020E86E2A82E82E0B82E00E07A
:101CC00010E0802E802F0E943011D82EF501C19097
:101CD0005F01C826B1F40F5F1F4F0830110589F767
:101CE0008FEF89838A831B820E94431F8160782F34
:101CF0009D838C8349815A816B818D810E9407036A
:101D00002FC08091360281FD0E943611E12CFF2404
:101D1000F3948C2D8F21F1F00E94150E882399F0F9
:101D2000EE828F82DF2081E009F480E088870E94C4
:101D3000431F8160782F9A8789874E815F816885EC
:101D40008A850E940703F801EA5DFD4F8081F8262D
:101D5000F08206C0E394FF0CF6E0EF12DACFBBCFBF
:101D600081E0911001C080E02A96ECE00C94F1260D
:101D70000E944F0E0E9411130E94FD160E94FC0249
:101D80000895CF93DF930E94F10FEC01811521E5B7
:101D9000920708F045C0811530E5930708F094C01C
:101DA000883E910528F5803E910508F0F8C0883AF4
:101DB000910570F4853A910508F07CC08130910559
:101DC00009F475C008F4E8C0049708F0E8C0E4C05E
:101DD0008F3B910508F0E0C0C85AD0E0CC0FDD1F62
:101DE000C358DE4F0990D881C02DCE019464D8C06D
:101DF000811540E2940758F4811551E0950708F0E9
:101E0000CEC08D3E910508F4C7C09065C9C0C1150C
:101E100080E4D80708F4C0C0DF70CE01906AC0C06B
:101E2000811525E59207A8F4811534E5930708F09C
:101E300095C0811543E5940708F07BC0811552E5F4
:101E4000950708F061C0D82FCC27CE01816F906A2A
:101E5000A7C0C11589E5D807A0F4C11528E5D207A8
:101E600008F082C0C11536E5D30708F095C08C2F65
:101E70000E9485108F7190E0D82FCC27CE01906200
:101E80008FC0C1154AE5D40708F474C0CE0190563E
:101E90008115904208F080C08D2F8F710E948510AF
:101EA000DD27D0628F71AE01582BCA0179C081E065
:101EB00090E076C0C55AD0E0C555DE4F8881C82F66
:101EC000D0E0CE0190646CC074E0969587957A95C9
:101ED000E1F7282F23703C2F337081E090E002C09F
:101EE000880F991F3A95E2F79C68AC01522B9A0132
:101EF0009C2F9F709695969550E2959FE001112436
:101F0000C9018C2B9D2B4CC08370992721E030E0B8
:101F100002C0220F331F8A95E2F79C2F9695969563
:101F200080E2989FE0011124C22BD32BCE019C6844
:101F300037C08370992721E030E002C0220F331FA1
:101F40008A95E2F79C2F9695969540E2949FE00142
:101F50001124C22BD32BCE019A6822C0D82FCC27B4
:101F6000CE01846F906A1CC0DC2FCC27CE01806F1D
:101F7000906A16C08C2F8F700E94851094E0D695C1
:101F8000C7959A95E1F7CF70D0E0DC2FCC27D069C8
:101F90009E01282BC90104C080E090E001C0CE0161
:101FA000DF91CF9108957830A0F4663090F490E3FB
:101FB000899FF001112486E0789FE00DF11D112426
:101FC000E60FF11DEE0FFF1FE852FF4F8591949130
:101FD000089580E090E008950E94D30F0E94C10E02
:101FE00008958238910569F1B0F48133910509F4BF
:101FF0006DC048F48932910509F463C08A329105B5
:1020000009F469C008958533910509F455C08933F1
:102010009105B9F00895833E910569F138F4803E49
:102020009105B1F0823E910509F10895863E910532
:10203000A9F1873E9105B9F1843E910509F064C08C
:1020400023C02091810220FD4FC021FD4DC0089585
:102050008091810280FD44C08091820280FF44C053
:102060008091810284FD42C083EE4DC08091810247
:1020700082FF38C0F5CF8091810282FD33C080910C
:10208000820280FD31C0ECCF8091820281FF32C09C
:102090008091810284FD2AC087EE35C08091810243
:1020A00083FF26C0F5CF8091810283FD21C08091FE
:1020B000820281FD1FC0ECCF8091810285FD1CC092
:1020C0001DC08091810285FD19C016C080918102DA
:1020D00086FD16C017C08091810286FD13C010C016
:1020E00089E311C082EE0FC080EE0DC080E00BC00E
:1020F00086EE09C084EE07C089E205C085E303C00F
:102100008AE201C081E390E008959091810292FFFC
:102110000DC0282F2871283019F4877F846006C0ED
:10212000282F2471243011F48B7F886093FF0DC019
:10213000282F2871283119F4877E846106C0282F42
:102140002471243111F48B7E88612091820220FF5A
:102150000DC0382F3871383019F4877F816006C080
:10216000382F3171313011F48E7F886021FF0DC01E
:10217000282F2871283119F4877E816106C0282F05
:102180002171213111F48E7E886194FD877E08953E
:1021900010927D0210927E0210927F0210928002B5
:1021A0000895CF92DF92EF92FF926B017C010E9423
:1021B000111381110EC00E944F1FC61AD70AE80AD8
:1021C000F90AC0927D02D0927E02E0927F02F092E4
:1021D0008002FF90EF90DF90CF9008950F931F93B0
:1021E0000E941113882319F00E944F1F0EC00E94F5
:1021F0004F1F00917D0210917E0220917F0230914D
:102200008002600F711F821F931F1F910F9108950D
:1022100080E0089508950E943F0D811102C00E9440
:10222000EF0D0E944A0D809336020E94540D909348
:102230008202809381020E940A110E944F0D682F32
:1022400070E080E090E00E946E076091D201709192
:10225000D3018091D4019091D5010E94AA070895DD
:10226000E82FF0E0E457FD4F80810895089580EA5B
:102270008A95F1F7089500C008950E9437110895D6
:1022800008950E94401108950E94411108950E94EE
:10229000401108950E94471108950E944011089529
:1022A000A4E0B0E0E6E5F1E10C94DD260E94111314
:1022B000609194028823E9F119821A821B821C82A0
:1022C000862F90E08E010F5F1F4FB80184579D4FFE
:1022D0000E944113882389F08091830290E044E0BA
:1022E00050E0B80184579D4F0E94062721E02093BB
:1022F0003702892B69F410E019C0809137028823D6
:10230000D1F384E0F80111928A95E9F7109237022F
:10231000E0918302F0E0E457FD4F89819A81AB811F
:10232000BC8180839183A283B38311E00E94650204
:102330000DC070E064577D4F8091830290E0845718
:102340009D4F0E9410140E944D1110E0812F249681
:10235000E4E00C94F926F894E82FE295EF70F0E0B1
:1023600031A1282F2F7081E090E001C0880F2A95BD
:10237000EAF7982F9095932391A392A1892B82A39A
:10238000789408950F931F93CF93DF93C8E0D1E023
:1023900089918F3F11F00E94AB1181E0CC30D807BA
:1023A000B9F7C2E0D1E008E011E089918F3F11F068
:1023B0000E94AB110C171D07C1F7DF91CF911F9140
:1023C0000F910895A0E0B0E0E8EEF1E10C94D92679
:1023D0008C01C62FD0E0CE01885F9E4F7C01FC01AE
:1023E00090819F3F09F447C0D62EF894E92FE295DB
:1023F000EF70F0E081A19F7021E030E001C0220F7A
:102400009A95EAF7822B81A382A12095282322A303
:1024100078940E943B11E2E0F1E048E051E031E0C5
:10242000C12C21912F3F89F0A22FA295AF70B0E06F
:1024300090968C9190E02F7002C0959587952A9583
:10244000E2F780FD02C0832F01C080E0C82A330F6D
:102450004E175F0731F7F70180818F3F11F00E941F
:10246000AB1161E0C11001C060E08D2D0E943D11F3
:10247000C00FD11FC882CDB7DEB7E8E00C94F526B7
:10248000A6E0B0E0E6E4F2E10C94DF2680910C01D6
:10249000811124C030914201209143019091440167
:1024A00080914501309308012093090190930A011E
:1024B00080930B0186E0E6E4F1E0DE0111960190E5
:1024C0000D928A95E1F7FE013196A2E0B1E0CE01CE
:1024D000079621912D938E179F07D9F780910C01B4
:1024E000811102C094E001C090E09093940284E0D6
:1024F000891B809383020E94C21188E0ECE8F2E01D
:10250000DF01982F1D929A95E9F7E4E8F2E0DF01E8
:102510001D928A95E9F784E00E94D8120E94620217
:102520002696E2E00C94FB26A8E0B0E0EAE9F2E1AE
:102530000C94DB268E010F5F1F4F88E0F80111928B
:102540008A95E9F7F12C6F2DC8010E94E211F394EE
:10255000F4E0FF12F8CF48E050E0B80184E892E0E0
:102560000E9406277C0121E0892B09F420E0E11478
:10257000F10441F088E0F801A4E8B2E001900D9286
:102580008A95E1F76091940270E064577D4F44E0D2
:1025900084E892E00E94D912E114F10419F40E9437
:1025A000501102C081E090E02896E6E00C94F726F6
:1025B0000895FF920F931F93CF93DF938C01F62E14
:1025C000D72FC42F222349F081E080933A020E9442
:1025D000431F909339028093380280913A028823F6
:1025E000C1F080913802909139020E945B1F0597DB
:1025F00080F0EF2DFD2FD8014C2F50E0CD01801B36
:10260000910B841795071CF48D918193F7CF10924D
:102610003A02CDB7DEB7E5E00C94F8260E94F20D41
:10262000089580913D0281110DC00E949426811170
:1026300002C082E001C081E080933D02823011F44B
:102640000E948F2681E090913D02913009F080E058
:1026500008950E940E1380930C010E9411138111A2
:102660000E94791308950E941113811102C00E94E3
:102670007C13089581E090913E029A3008F080E04A
:1026800008950F931F93CF93DF93EC018B018091FB
:102690003E028A3038F4B801CE010E940D14811137
:1026A0001DC00AC080913B0290913C020E945B1FBA
:1026B000843F914080F715C080913E028F3F19F012
:1026C0008F5F80933E0280913E028A3060F00E94CC
:1026D000431F90933C0280933B0203C010923E0242
:1026E00002C080E001C081E0DF91CF911F910F9186
:1026F00008950E94C21B089582E30E94241D08953C
:102700000F931F9398E08902F0011124E35FFE4FBD
:1027100026813781232B91F08093950260910E01E1
:1027200070910F0120910D0130E0AB014B565D4FD0
:1027300004E610E082E30E94B71C02C080E090E053
:102740001F910F910895A0E0B0E0E9EAF3E10C9445
:10275000D226582E69015801C82F880FDD0B41156C
:10276000510531F4852D0E94801397FF28C025C0A4
:10277000CE0123E0880F991F2A95E1F7FC01E35F62
:10278000FE4FE080F12C4E155F0508F47A01FC0144
:10279000E35FFE4F81809280C4018B569D4F3C01C8
:1027A000A7010E94132704E610E09701A301682DFA
:1027B00082E30E94B71C97FFD5CF80E029C0A11407
:1027C000B10429F183E0CC0FDD1F8A95E1F7FE010A
:1027D000E35FFE4FE380F12CAE14BF0408F47501F3
:1027E000C35FDE4F6C817D81AB014B565D4F04E6CC
:1027F00010E0970182E30E94DE1C97FDDECF6C8122
:102800007D816B567D4FA701C6010E94132781E091
:10281000CDB7DEB7EFE00C94EE260E940A150895BE
:102820000E9421150895A4E0B0E0E9E1F4E10C94E0
:10283000DD2660914B0270914C0280914D02909187
:102840004E020E946A1F643671058105910528F1C8
:102850000E94EE10DC01CB010296A11DB11D8983FF
:102860009A83AB83BC8300E010E020E030E044E0DA
:1028700050E0BE016F5F7F4F83E00E94A313182FCB
:10288000882361F00E944F1F60934B0270934C02AB
:1028900080934D0290934E0201C011E0812F249647
:1028A000E4E00C94F926A0E0B0E0E9E5F4E10C9452
:1028B000D7267C015B016A010E943A13811103C093
:1028C00001E010E002C00AE010E0C1E0D0E0B50194
:1028D000C701F6010995811115C021960C171D0736
:1028E00094F0CC9F9001CD9F300D300D112480E0ED
:1028F00090E045E34A95F1F70000019682179307AF
:10290000C1F7E5CF81E0CDB7DEB7EAE00C94F3265E
:10291000A5E0B0E0EEE8F4E10C94D7265B01E0908E
:10292000AE01F090AF0101E010E09E012B5F3F4F40
:1029300040E050E060E070E081E00E94A313182FB7
:10294000882309F43EC0670182E0C80ED11C609163
:102950004702709148028091490290914A020E9478
:102960006A1F643671058105910518F104E010E0D5
:102970009E012F5F3F4F40E050E060E070E082E05A
:102980000E94A313182F64E070E0C6010E94FE1796
:1029900091E02D81281390E0192351F10E944F1FDF
:1029A00060934702709348028093490290934A02D1
:1029B00011C064E070E0C6010E94FE179D8189137A
:1029C000D5CFF70182819381A481B58189839A83D0
:1029D000AB83BC83112361F089819A81AB81BC8177
:1029E0008093430290934402A0934502B093460221
:1029F0008091430290914402A0914502B091460219
:102A0000F50180839183A283B383812F2596EAE029
:102A10000C94F3260F931F93CF93DF93EC018B015C
:102A200048E854E10E945314882331F043E154E113
:102A3000B801CE010E945314DF91CF911F910F91E5
:102A400008950F931F93CF93DF93C091AE01D09160
:102A5000AF01CE01029624E0FB01DC0101900D9252
:102A60002A95E1F764E070E00E94FE1789836E8189
:102A70007F818885998500913F02109140022091C5
:102A8000410230914202601771078207930751F0AB
:102A900060933F0270934002809341029093420200
:102AA0000E94D110DF91CF911F910F9108950E9444
:102AB00062210E943E0E0E946F2108950E9474219F
:102AC0000E94B80E0E948E2108950E94DA1E0E9474
:102AD00048210E942B0E0E9457150E945E150E94ED
:102AE000340EFBCF8091550280FF06C06091320109
:102AF00070E0660F771F26C081FF04C0609132012D
:102B000084E005C082FF07C06091320188E0689FC1
:102B1000B001112417C0909154029923D1F0609113
:102B20003101961788F72091320188E0289F9001A3
:102B30001124929FA001939F500D112470E0CA01AF
:102B40000E94B5266038710540F46115710519F4CD
:102B500006C068E070E0862F08958FE7089581E051
:102B600008958091550280FF08C060912E0170E0A9
:102B7000759567957595679521C081FF06C0609131
:102B80002E0170E07595679519C082FF04C06091B1
:102B90002E0170E010C090915302992399F060913A
:102BA0002D019617A0F780912E01899FC001112455
:102BB00070E00E94B5266038710540F4611571051A
:102BC00019F406C061E070E0862F08958FE708953C
:102BD00081E008958D3E21F40E947215819504C014
:102BE0008E3E29F40E9472158093590208958F3EFB
:102BF00021F40E947215819504C0803F29F40E943F
:102C00007215809358020895893F19F40E94B115F6
:102C100005C08A3F31F40E94B115819580935A0214
:102C200008958B3F21F40E94B115819504C08C3F1B
:102C300029F40E94B11580935B0208959FE0980FDC
:102C4000983078F421E030E0A90102C0440F551F0C
:102C50009A95E2F7CA0190915702892B8093570207
:102C600008958D3F21F48091550281600BC08E3F05
:102C700021F480915502826005C08F3F29F4809134
:102C8000550284608093550208958D3E39F49091E9
:102C9000590297FF35C01092590259C08E3E29F44F
:102CA000909159021916BCF32BC0909158028F3E97
:102CB00029F497FF25C01092580249C0803F19F4AB
:102CC0001916CCF31DC090915A02893F29F41916A8
:102CD000BCF410925A023BC08A3F19F497FF10C00F
:102CE000F8CF8B3F39F490915B0297FF09C01092A7
:102CF0005B022DC08C3F21F490915B021916BCF34E
:102D00009FE0980F983080F421E030E0A90102C0E4
:102D1000440F551F9A95E2F7CA018095909157028A
:102D200089238093570213C08D3F21F4809155026F
:102D30008E7F0BC08E3F21F4809155028D7F05C0A0
:102D40008F3F29F4809155028B7F809355028091AB
:102D50005802811106C080915902811102C010925F
:102D6000540280915A02811106C080915B02811148
:102D700002C01092530208950E94431F20915802EE
:102D8000211104C020915902222321F09093520274
:102D90008093510220915A02211104C020915B02BC
:102DA000222321F09093500280934F0286E592E017
:102DB0000E94031E0895E6E5F2E086E0DF011D9221
:102DC0008A95E9F71092540210925302109255021C
:102DD0000895FC01828181110DC0838181110AC097
:102DE0008481811107C091E08581811101C090E04B
:102DF000892F01C081E081700895A6E0B0E0E3E092
:102E0000F7E10C94DE2686E0E6E5F2E0DE011196BD
:102E100001900D928A95E1F7109258021092590292
:102E200010925A0210925B028B81811104C08C8136
:102E3000882309F45FC080915102909152020E9450
:102E40005B1FAC0190915402992339F0209133011A
:102E500030E02417350758F04DC0209134018AE046
:102E6000289F900111242417350718F043C09F3F75
:102E700019F09F5F909354021B81112361F00E940F
:102E80007215111614F09FEF01C091E0989F902DDC
:102E90001124909358021C81112361F00E94721535
:102EA000111614F09FEF01C091E0989F902D11240E
:102EB00090935902309158023323E1F02091590246
:102EC0002223C1F045EB3403C0011124992319F0EA
:102ED0009093580203C081E08093580235EB23039E
:102EE000C0011124992319F09093590203C081E085
:102EF000809359028D81811104C08E81882309F449
:102F00005FC080914F02909150020E945B1FAC0104
:102F100090915302992339F020912F0130E024172A
:102F2000350758F04DC0209130018AE0289F90016C
:102F300011242417350718F043C09F3F19F09F5FF5
:102F4000909353021D81112361F00E94B115111657
:102F500014F09FEF01C091E0989F902D1124909361
:102F60005A021E81112361F00E94B115111614F04E
:102F70009FEF01C091E0989F902D112490935B02E8
:102F800030915A023323E1F020915B022223C1F0F9
:102F900045EB3403C0011124992319F090935A0290
:102FA00003C081E080935A0235EB2303C001112452
:102FB000992319F090935B0203C081E080935B0238
:102FC000BE016F5F7F4F86E592E00E948C1E8111EB
:102FD00005C086E592E00E94E91681110E94BC16A8
:102FE00086E0FE013196A6E5B2E001900D928A9549
:102FF000E1F72696E3E00C94FA260895FC01680FA9
:10300000791F8FEF91E3E617F70771F0219182277F
:1030100028E030E087FF03C0880F892701C0880FB0
:1030200021503109B9F7EFCF0895CF93DF93EC0129
:10303000FB018281882309F43CC1C430FDE5DF0730
:1030400060F4CB3F9CE5D90788F49E0122503C45B3
:103050002431310508F02EC109C0C236EDE5DE0786
:1030600029F0C63AFDE5DF0709F024C10E94540D9E
:103070009093820280938102C1318CE5D80709F4D4
:10308000C6C008F042C0C930ECE5DE0709F49BC0B9
:1030900000F5C5308CE5D80709F485C078F4C33055
:1030A000ECE5DE0709F478C008F07AC0C230DC45F0
:1030B00009F0F5C0809181028160EFC0C7309CE5C6
:1030C000D90709F478C008F07AC080918102806144
:1030D000E4C0CD30FCE5DF0709F487C058F4CB30FD
:1030E0009CE5D90709F479C008F07BC08091810282
:1030F00088606FC0CF30FCE5DF0709F480C008F0BE
:1031000082C080918102877FC8C0CE3F9CE5D907ED
:1031100009F471C000F5C531FCE5DF0709F485C08D
:1031200068F4C3319CE5D90709F475C008F095C06F
:103130000E941D07809181028F77AFC0CC3FFCE5D4
:10314000DF07A9F108F054C0CB3FDC4509F0A7C068
:103150008091820240C0C230EDE5DE0709F489C0EB
:1031600058F4C1158DE5D80709F45AC008F069C0B4
:103170008091820282602FC0C236EDE5DE0709F43D
:103180007CC0C63AFDE5DF0709F481C0C330DD45E8
:1031900009F085C080E06EC08091810282607DC0B0
:1031A0008091810216C080918102886076C08091F2
:1031B000820282604FC08091810280626EC08091E5
:1031C000810280646AC00E941D078091810280682C
:1031D00064C0846062C081603DC0809181028E7F46
:1031E0005CC0809181028D7F58C08091810216C0A1
:1031F0008091820218C0809182028D7F2BC08091C5
:1032000081028F7E4AC0809181028F7D46C080916D
:1032100081028F7B42C080918102877F8B7F3DC07E
:10322000809182028D7F8E7F15C08091810282FB0A
:10323000222720F991E0922790FB82F990FB83F9F5
:103240002CC080918202982F909591708E7F892B4F
:1032500090FB81F98093820222C00E941D07809119
:10326000810287FB222720F991E0922790FB87F9C2
:1032700014C081E00E94FC0D12C08091810284FB89
:10328000222720F991E0922790FB84F906C08091D3
:103290008102982F909590FB80F980938102809114
:1032A0008102909182020E94650D0E941D0780E0BC
:1032B00001C081E0DF91CF910895893289F1F0F466
:1032C000843171F1B0F4873009F077C081E08093E8
:1032D000340184E1809333018AE0809332018EE1EE
:1032E0008093310188E080932E0188E280932D0144
:1032F00064C092EE980F9A30F0F05FC0803509F408
:1033000044C028F48F3409F058C08AE03FC08135AA
:1033100029F0823509F051C081E038C08FEF36C006
:1033200080915E02882379F110925E0210925D0214
:1033300010925C0242C08D5180935E02833099F0FE
:1033400038F4813069F08230D9F483E391E00DC024
:10335000853099F078F0863099F48DE291E005C0DF
:1033600084E391E002C082E391E090935D02809358
:103370005C0223C081E391E0F8CF8EE291E0F5CFCB
:1033800010925E021AC080E0089586EFE0915C0220
:10339000F0915D02309789F02081082E000C990B86
:1033A000820F911D8F3F910519F014F08FEF04C02B
:1033B00097FF02C0108201C0808381E008950F93BF
:1033C0001F9341E050E060E070E08A019B0104C07F
:1033D000000F111F221F331F8A95D2F7C901B801B0
:1033E0000E946E070E941D071F910F9108958B3157
:1033F00009F468C058F58B3009F486C078F486303B
:1034000009F445C020F4853009F44BC07FC08730F3
:1034100009F44AC0883009F477C078C0803109F4D3
:1034200064C068F48E3009F071C08091360282FB6E
:10343000222720F991E0922790FB82F94CC0863137
:1034400009F462C0893109F45FC060C08A32E1F0DA
:1034500060F4873209F455C028F48E3108F456C060
:103460008D5150C08932E9F051C0833450F48A3311
:1034700008F045C0853309F444C0883309F444C0DA
:1034800045C08334F1F142C00E94EF0D3DC08091F0
:103490003602817F8E7F8093360281E080935F02C7
:1034A00008950E94770230C080913602982F90953F
:1034B000917090FB80F980933602911125C0897F2D
:1034C000877F10C08091360281FB222720F991E08E
:1034D000922790FB81F9809336029923A9F080917D
:1034E00036028160809336020FC08091360283FBE2
:1034F000222720F991E0922790FB83F9ECCF8953A2
:1035000001C080E00E94DF1981E0089580E0089505
:1035100080E008950E94881A0895CF93C82F809163
:103520005F02813069F038F08230C1F58C2F0E9443
:103530005D1981E039C00E94550C823289F504C0C2
:103540000E94550C823261F48C2F0E948A1A8111DC
:1035500004C08C2F0E94F7191FC081E090E01CC0AE
:103560008C2F0E94881A811116C0C43189F058F43A
:10357000CB3089F0C031B1F482E080935F0288E300
:103580000E945D1908C0C93219F0C83321F00AC081
:1035900010925F0207C081E0817006C010925F0246
:1035A00080E002C080E0F8CFCF910895CF93DF9301
:1035B00086319C4541F5EB010E94550C982F8A817C
:1035C0002091000130910101882379F09A7A81E0FD
:1035D00009F480E080936002911102C069E201C0A9
:1035E00065E3C9010E947F1E0AC0809160028111BB
:1035F00002C069E201C065E3C9010E94821E0E9407
:10360000990C80E001C081E0DF91CF9108950F9384
:103610001F93CF93DF93C42FD22FFC018281882385
:10362000B1F0409363020E94431F90936202809323
:10363000610280E28C0F883008F04DC0C77081E0D5
:1036400001C0880FCA95EAF70E94890444C080919E
:103650006302481330C080916102909162020E941F
:103660005B1F883C910538F510E21D0FCD17B9F0AE
:1036700080E28C0F883040F4C77081E001C0880F71
:10368000CA95EAF70E949004183010F581E09D2F4A
:10369000977001C0880F9A95EAF70E948904802FDD
:1036A0000E947F041830B8F4D77081E001C0880F01
:1036B000DA95EAF70AC080E28C0F883060F4C770B0
:1036C00081E001C0880FCA95EAF70E94900403C008
:1036D000802F0E947F04DF91CF911F910F91089559
:1036E0000F939C01CB01243F4CE5340731F188F462
:1036F000293DFCE53F07D9F02A3D4CE5340779F137
:10370000283D3C45A9F506E221EE41EE68ED7CE559
:103710002BC0263FFCE53F07E1F0A8F0273F3C45E2
:1037200039F507E225EE46EE67EF7CE51DC007E2BE
:1037300025EE45EE69ED7CE517C006E221EE40EE90
:1037400064EF7CE511C007E225EE44EE65EF7CE511
:103750000BC006E221EE42EE66EF7CE505C008E212
:1037600021E045EE6AED7CE50E94071B80E008C081
:10377000FC018281882319F01092630201C081E06C
:103780000F9108951092B90088E48093B8000895CD
:10379000A0E0B0E0EEECFBE10C94D626B82EEB01F5
:1037A0000E94431F6C01C431D10558F0CF3F8FEF09
:1037B000D80759F0CE0164E170E00E94A1267B0198
:1037C00007C0EE24E394F12C03C025E0E22EF12C97
:1037D00084E8A82E94EA992E1092BC009092BC0026
:1037E0000E94431F8C018091BC0087FD08C00E948D
:1037F000431F801B910B8E159F05A8F32AC0809153
:10380000B900887F883041F08091B900887F80318D
:1038100019F00FEF1FEF1FC0B092BB00A092BC00C9
:103820000E94431F8C018091BC0087FD08C00E944C
:10383000431F801B910B8E159F05A8F30AC0809132
:10384000B900887F883111F0803419F700E010E06A
:103850000EC00EEF1FEFCF3F8FEFD80709F4BCCF9C
:10386000C6010E945B1F8C179D0708F4B5CFC801E5
:10387000CDB7DEB7EBE00C94F2260F931F93CF93F6
:10388000DF93EB018093BB0084E88093BC000E942F
:10389000431F8C018091BC0087FD0EC0CF3F8FEF8E
:1038A000D807C1F30E94431F801B910B8C179D0703
:1038B00088F38EEF9FEF0CC02091B900287F81E044
:1038C00090E0283211F480E090E091958195910983
:1038D000DF91CF911F910F9108950F931F93CF9375
:1038E000DF93EC0184EC8093BC000E94431F8C01A9
:1038F0008091BC0087FD0EC0CF3F8FEFD807C1F38A
:103900000E94431F801B910B8C179D0788F38EEF3D
:103910009FEF03C08091BB0090E0DF91CF911F919A
:103920000F9108950F931F93CF93DF93EC0184E8D9
:103930008093BC000E94431F8C018091BC0087FDD6
:103940000EC0CF3F8FEFD807C1F30E94431F801BEB
:10395000910B8C179D0788F38EEF9FEF03C080912A
:10396000BB0090E0DF91CF911F910F910895A0E0EF
:10397000B0E0EDEBFCE10C94D926C62F6A01790189
:10398000B8010E94C81B97FD11C0B8018C2F0E947E
:103990003D1CE601EC0CFD1CCE15DF0539F097FD52
:1039A00005C0B80189910E943D1CF6CF24E92093FF
:1039B000BC00CDB7DEB7E8E00C94F526A0E0B0E09F
:1039C000E4EEFCE10C94D926D82EC62E7A01E9014A
:1039D000B8010E94C81B97FD2AC0B8018C2D0E9417
:1039E0003D1C97FD24C0B8018D2D81600E94C81B2D
:1039F0006701219796012E193F092C173D0768F49E
:103A000097FD15C0C8010E946D1C97FD02C0F6010C
:103A10008083FFEFCF1ADF0AEDCF97FD08C0C80102
:103A20000E94921C97FD03C0CE0DDF1D888324E900
:103A30002093BC001816190614F480E090E0CDB76E
:103A4000DEB7E8E00C94F5268093BA0085EC80930D
:103A5000BC0008951F920F920FB60F9211242F935E
:103A60003F934F935F936F937F938F939F93AF9306
:103A7000BF93CF93DF93EF93FF938091B900887F3B
:103A8000803899F058F4882309F474C0803609F01E
:103A900073C010926402109266026EC0883A09F4F4
:103AA0005BC0883B09F458C067C0809164028111F3
:103AB0001EC08091BB0080936502809165028A30B0
:103AC00020F01092650280E001C081E091E09093C7
:103AD00064022091650230E040910E0150910F0187
:103AE0004217530709F090E09093660246C0E091B8
:103AF0006502F0E08091BB00EB56FD4F8083809122
:103B000065028F5F80936502809166028823A1F130
:103B1000C091AE01D091AF01A88188E0A802D00188
:103B20001124A35FBE4F1696ED91FC911797309725
:103B300019F114962D913C9115972C0F3D1F11965C
:103B40008D919C911297BE01680F791F13964C912D
:103B500013978C91099510C0E0916502F0E0EB5647
:103B6000FD4F80818093BB00809165028F5F8093C1
:103B7000650202C01092BC0081E09091BC00829569
:103B8000880F880F807C9568892B8093BC00FF91FB
:103B9000EF91DF91CF91BF91AF919F918F917F91E5
:103BA0006F915F914F913F912F910F900FBE0F90AA
:103BB0001F9018959093B1018093B0010895909350
:103BC0006D0280936C0208950E941113811103C04D
:103BD000809167020895E0916C02F0916D02309738
:103BE00029F00190F081E02D0995089580E0089575
:103BF000E0916C02F0916D02309721F00280F38128
:103C0000E02D09950895E0916C02F0916D023097D6
:103C100039F022E0DC012C930480F581E02D099538
:103C2000089520916A0230916B022817390771F0CC
:103C300090936B0280936A02E0916C02F0916D02A6
:103C4000309721F00680F781E02D099508952091A5
:103C50006802309169022817390771F09093690260
:103C600080936802E0916C02F0916D02309721F030
:103C70000084F185E02D09950895FC01329697E0C6
:103C800080E0915029F021912223D9F38F5FF9CF61
:103C90000895662349F0FC01329608962191621737
:103CA00029F0E817F907D1F780E0089581E0089539
:103CB0009C01FC0132969FEF80E04191461789F00C
:103CC0009F3F19F4411101C0982F8F5F8630A9F7EB
:103CD0009F3F39F0F901E90FF11D97FDFA956283D5
:103CE000089508959C012A5F3F4FFC0142814613CD
:103CF00001C01282019682179307B9F708950E94B6
:103D0000581E08950E94721E0895029626E0FC0136
:103D100011922A95E9F7089546E050E00E9406279F
:103D200021E0892B09F420E0822F089508950E9454
:103D3000961E089583E080936E020E94971E089558
:103D4000811102C081E001C082E080936E020E9476
:103D5000971E08950E94A01E089581E080936E0230
:103D60000E94971E08950E94AD1E089508950E9416
:103D7000B61E08950E94B71E08950E94B61E0895AB
:103D80000E94B61E08950E94B61E0895CF930E9409
:103D9000C01E0E9494120E94BD1EC0E08C2F0E9483
:103DA0003011811104C0CF5FC830C1F701C081E07C
:103DB000CF91089585B7806885BF85B7806885BF36
:103DC00008951F920F920FB60F9211248F939F9315
:103DD000AF93BF9380916F02811113C080919F02B6
:103DE0009091A002A091A102B091A2024196A11DC2
:103DF000B11D80939F029093A002A093A102B09363
:103E0000A202BF91AF919F918F910F900FBE0F9023
:103E10001F9018958091A702843031F10E94D6023C
:103E200010926F0220E488E190E00FB6F894A89514
:103E3000809360000FBE2093600083B7817F846011
:103E400083BF83B7816083BF7894889583B78E7F63
:103E500083BF0FB6F894A895809160008861809325
:103E60006000109260000FBE08950E941D070E941E
:103E7000DB02089582E084BD93E095BD9AEF97BD83
:103E800080936E0008952FB7F89480919F029091CF
:103E9000A002A091A102B091A2022FBF08952FB756
:103EA000F89460919F027091A0028091A10290917C
:103EB000A2022FBF08959C014FB7F89480919F02F2
:103EC0009091A002A091A102B091A2024FBF821BCB
:103ED000930B0895CF92DF92EF92FF922FB7F89451
:103EE000C0909F02D090A002E090A102F090A202A8
:103EF0002FBFA7019601261B370B480B590BCA0190
:103F0000B901FF90EF90DF90CF90089578941F92C1
:103F10000F920FB60F9211248F939F93AF93BF937D
:103F200080919F029091A002A091A102B091A20263
:103F30000196A11DB11D80939F029093A002A093B2
:103F4000A102B093A202BF91AF919F918F910F9068
:103F50000FBE0F901F90189587E797E79093010881
:103F6000809300089AE088E10FB6F894A8958093B2
:103F700060000FBE90936000FFCF9AE088E10FB61B
:103F8000F894A895809360000FBE90936000FFCFD7
:103F900080917B020895089522E02093E9002FEF9D
:103FA0003091E800215035FD06C035ED3A95F1F726
:103FB00000002111F5CF2091E80025FF0BC040E063
:103FC00050E066E070E00E9401228091E8008E7768
:103FD0008093E8000895CF93DF9321E02093E900D8
:103FE0002FEF3091E800215035FD06C035ED3A95B0
:103FF000F1F700002111F5CF2091E80025FF14C052
:10400000EC0140E050E068E070E00E940122809105
:10401000E8008E778093E80088E0FE01A3E7B2E035
:1040200001900D928A95E1F7DF91CF9108958093E9
:10403000700270937202609371028091A7028430C3
:1040400001F582E08093E9008FEF9091E8008150C4
:1040500095FD06C095ED9A95F1F700008111F5CF19
:104060008091E80085FF0DC040E050E063E070E023
:1040700080E792E00E9401228091E8008E77809391
:10408000E8000895BC0184E00E9417200895BC0157
:1040900083E00E94172008958091A602811109C033
:1040A0000E948C230E94E9238091E2008460809327
:1040B000E20008951092A60208950E94B31E08958A
:1040C0006091A30281E0611101C080E00E949A1E0C
:1040D00008959091A70281E0943009F080E060910A
:1040E000A3020E94A01E089542E061EC81E00E94BC
:1040F000052342E261EC82E00E9405239091A70231
:1041000081E0943009F080E06091A3020E94AA1E31
:1041100008958091A902833009F461C030F48130A0
:1041200071F0823009F49BC008958A3009F487C089
:104130008B3009F46CC0893009F0A9C020C080918F
:10414000A802813A09F0A3C08091E800877F80939C
:10415000E8008091AC029091AD02892B21F468E0D7
:1041600083E792E003C060E080E090E070E00E94AE
:1041700046228091E8008B778093E8000895809133
:10418000A802813209F083C08091AC029091AD0207
:10419000029708F07CC08091E800877F8093E80058
:1041A0008091E80082FD05C08091A7028111F8CFBF
:1041B0006EC02091F3008091F20090E0922B029764
:1041C00031F48091F100813011F0863021F480913A
:1041D000F10080937B028091E8008B7754C080913E
:1041E000A802813A09F053C08091AC029091AD02CF
:1041F000892B09F04CC08091E800877F8093E8000C
:104200008091E80080FFFCCF8091410137C0809110
:10421000A8028132E1F58091AC029091AD02892B28
:10422000B1F58091E800877F8093E8000E943A23EF
:104230008091AA02809341010E941D0708958091F8
:10424000A802813221F58091E800877F8093E80001
:104250000E943A238091AB0280937C020895809162
:10426000A802813AA1F48091E800877F8093E8005A
:104270008091E80080FFFCCF80917C028093F10068
:104280008091E8008E778093E8000E943A23089599
:1042900084B7877F84BF0FB6F894A895809160009B
:1042A000886180936000109260000FBE90E080E80B
:1042B0000FB6F89480936100909361000FBE0E9446
:1042C000AD1E08950E948C230E94E923E2EEF0E0E7
:1042D00080818460808378940E947426089585E3A9
:1042E00091E00E94DF1D08958091A7028530A9F416
:1042F0008091A702853079F40E940A1F8091A5025F
:104300008823B1F30E94C61E882391F30E94EB21FB
:104310000E941D07EDCF0E94351F089508950E9449
:1043200092210895292F332723303105C9F060F4F5
:104330002130310581F02230310509F044C08BE392
:1043400090E020EE32E043C021323105E1F022322C
:10435000310549F138C082E190E02BE133E037C00C
:1043600099278130910549F028F0029761F5E8EB33
:10437000F2E005C0ECEDF2E002C0E8ECF2E084917E
:1043800090E09F0124C06115710541F06130710515
:10439000D1F489E090E02BE033E019C089E090E0AF
:1043A00022EF32E014C06115710541F061307105F2
:1043B00051F48BE790E02DE233E009C080E490E017
:1043C00028EA33E004C080E090E020E030E0FA0129
:1043D00031832083089580E189BD82E189BD09B4DC
:1043E00000FEFDCF8091D8008F7D8093D800809112
:1043F000E00082608093E0008091E00081FDFCCFCE
:104400000895A0E0B0E0E7E0F2E20C94D926EC01D8
:104410008B017A010E945923811133C0E114F10408
:1044200039F0F70180819181081B190BC80FD91F42
:10443000C12CD12C0115110519F18091E80085FDE1
:1044400016C08091E8008E778093E800E114F104B3
:1044500049F0F70180819181C80ED91ED182C082B6
:1044600085E00FC00E945923882321F30AC0899157
:104470008093F10001501109FFEFCF1ADF0ADACF64
:1044800080E0CDB7DEB7E8E00C94F5262091AE02CF
:104490003091AF022617370748F06115710539F4DE
:1044A0002091E8002E772093E80001C0B901FC01BB
:1044B00020E06115710579F18091A7028823F1F15F
:1044C0008530F1F18091E80083FD3CC08091E800E7
:1044D00082FD2EC08091E80080FFEBCF2091F30099
:1044E0008091F20090E0922B6115710551F08830B7
:1044F000910538F421912093F100615071090196E2
:10450000F3CF21E0089709F020E08091E8008E7752
:104510008093E800CECF2111CFCF0AC08091A702AF
:10452000882361F0853061F08091E80083FD0AC046
:104530008091E80082FFF2CF80E0089582E0089544
:1045400083E0089581E008952091AE023091AF029A
:104550002617370748F06115710539F42091E800F6
:104560002E772093E80001C0B901FC0120E061151D
:10457000710591F18091A702882309F440C085302C
:1045800009F43FC08091E80083FD3DC08091E800C0
:1045900082FD2FC08091E80080FFE9CF2091F300D9
:1045A0008091F20090E0922B6115710559F08830EE
:1045B000910540F424912093F100319661507109E6
:1045C0000196F2CF21E0089709F020E08091E80001
:1045D0008E778093E800CBCF2111CCCF0AC0809199
:1045E000A702882361F0853061F08091E80083FDA7
:1045F0000AC08091E80082FFF2CF80E0089582E057
:10460000089583E0089581E00895982F973068F524
:104610009093E900981739F07091EC002091ED002B
:104620005091F00003C0242F762F50E021FD02C0EE
:104630009F5FECCF3091EB003E7F3093EB003091E9
:10464000ED003D7F3093ED003091EB003160309311
:10465000EB007093EC002093ED005093F00020915C
:10466000EE0027FDE5CF80E008958F708093E9008C
:1046700081E008958091A80287FF11C08091E80031
:1046800082FD05C08091A7028111F8CF11C08091F1
:10469000E8008B770BC08091A702882349F08091B6
:1046A000E80080FFF8CF8091E8008E778093E800E3
:1046B00008952091E4003091E50095E64091EC00EA
:1046C000842F817040FF23C08091E80080FD1DC0D1
:1046D0008091A702882399F0853099F08091EB00B2
:1046E00085FD11C04091E4005091E5002417350785
:1046F00029F3915011F09A01E1CF84E0089582E00E
:10470000089583E0089581E0089580E00895409140
:10471000E80042FFDDCF08950E94FB230E9403249E
:10472000E0EEF0E0808181608083E8EDF0E0808160
:104730008F77808319BCA7EDB0E08C918E7F8C932E
:1047400080818F7E80831092A60208950F931F931D
:10475000CF93DF930E94FB230E940324C8EDD0E097
:1047600088818F77888388818068888388818F7D1E
:10477000888319BC1092A7021092A3021092A5027E
:104780001092A40200EE10E0F80180818B7F8083FC
:1047900088818160888342E060E080E00E94052398
:1047A000E1EEF0E080818E7F8083E2EEF0E08081B8
:1047B00081608083808188608083F80180818E7F22
:1047C0008083888180618883DF91CF911F910F91D1
:1047D0000895E8EDF0E080818F7E8083E7EDF0E0E2
:1047E00080818160808384E082BF81E08093A60223
:1047F0000E94A6230895E8EDF0E080818E7F8083FB
:104800001092E20008951092DA001092E1000895EB
:104810001F920F920FB60F9211242F933F934F9335
:104820005F936F937F938F939F93AF93BF93EF9318
:10483000FF938091E10082FF0BC08091E20082FF34
:1048400007C08091E1008B7F8093E1000E94732676
:104850008091DA0080FF1FC08091D80080FF1BC0CC
:104860008091DA008E7F8093DA008091D90080FFFA
:104870000DC080E189BD82E189BD09B400FEFDCF94
:1048800081E08093A7020E944C2005C019BC1092C1
:10489000A7020E945A208091E10080FF19C08091F8
:1048A000E20080FF15C08091E2008E7F8093E200DD
:1048B0008091E20080618093E2008091D800806264
:1048C0008093D80019BC85E08093A7020E946020E5
:1048D0008091E10084FF30C08091E20084FF2CC011
:1048E00080E189BD82E189BD09B400FEFDCF8091E0
:1048F000D8008F7D8093D8008091E1008F7E8093D7
:10490000E1008091E2008F7E8093E2008091E200DE
:1049100081608093E2008091A302882311F084E0FB
:1049200007C08091E30087FD02C081E001C083E001
:104930008093A7020E9469208091E10083FF29C033
:104940008091E20083FF25C08091E100877F809302
:10495000E10082E08093A7021092A3028091E1001F
:104960008E7F8093E1008091E2008E7F8093E20051
:104970008091E20080618093E20042E060E080E0AC
:104980000E9405238091F00088608093F0000E94CF
:104990005D20FF91EF91BF91AF919F918F917F919A
:1049A0006F915F914F913F912F910F900FBE0F909C
:1049B0001F9018951F920F920FB60F9211242F93EC
:1049C0003F934F935F936F937F938F939F93AF9397
:1049D000BF93CF93DF93EF93FF93C091E900CF7024
:1049E0008091EC00D82FD17080FDD0E81092E900C2
:1049F0008091F000877F8093F00078940E941E25BC
:104A00001092E9008091F00088608093F000CD2B37
:104A1000CF70C093E900FF91EF91DF91CF91BF91EB
:104A2000AF919F918F917F916F915F914F913F9146
:104A30002F910F900FBE0F901F901895AAE2B0E033
:104A4000E4E2F5E20C94DE26E8EAF2E08091F1007F
:104A5000819322E0E03BF207C9F70E948920809110
:104A6000E80083FF2EC18091A8029091A902492FEE
:104A700050E04A30510508F024C1FA01EE59FF4FC9
:104A80000C94C926803821F0823809F01AC108C078
:104A90008091A4029091A502992389F082600FC0B1
:104AA0008091AC028F70873008F00BC18093E900D1
:104AB0008091EB0085FB882780F91092E9009091A6
:104AC000E800977F9093E8008093F1001092F10046
:104AD000D1C0282F2D7F09F0F4C0882319F082302F
:104AE00061F0EFC08091AA02813009F0EAC09330F2
:104AF00009F080E08093A5022EC08091AA02811166
:104B00002AC08091AC028F702FEF280F263008F05A
:104B1000D8C08093E9002091EB0020FF1CC09330A7
:104B200021F48091EB00806214C09091EB009061C1
:104B30009093EB0021E030E0A90102C0440F551F23
:104B40008A95E2F74093EA001092EA008091EB0028
:104B500088608093EB001092E9008091E800877FE5
:104B60008093E8000E943A23ACC08111AAC0109142
:104B7000AA021F778091E3008078812B8093E30065
:104B80008091E800877F8093E8000E943A2380911B
:104B9000E80080FFFCCF8091E30080688093E30011
:104BA000111102C082E001C083E08093A70289C096
:104BB0008058823008F085C08091AA029091AB02A3
:104BC0008C3D53E0950779F583E08A838AE28983F7
:104BD0004FB7F894DE01139620E03EE051E2E32F58
:104BE000F0E050935700E49120FF03C0E295EF708E
:104BF0003F5FEF708E2F90E0EA3010F0C79601C053
:104C0000C0968D939D932F5F243149F74FBF8091BC
:104C1000E800877F8093E8006AE270E0CE010196A9
:104C20000E94462216C06091AC027091AD02AE01A6
:104C30004F5F5F4F0E948F21BC01892B09F441C057
:104C40009091E800977F9093E80089819A810E9473
:104C5000A4228091E8008B778093E80032C08038EE
:104C600081F58091E800877F8093E8008091A3021E
:104C70008093F1008091E8008E7772CF811121C07E
:104C80008091AA029091AB0299270297D4F4809167
:104C9000E800877F8093E8008091AA028093A302B6
:104CA0000E943A238091A302811106C08091E30003
:104CB00087FD02C081E001C084E08093A7020E94CA
:104CC00074208091E80083FF0AC08091E800877F0C
:104CD0008093E8008091EB0080628093EB00AA96BD
:104CE000E3E00C94FA260895CF938091A7028823DD
:104CF000A1F0C091E900CF709091EC00892F8170F4
:104D000090FD80E8C82B1092E9008091E80083FDB7
:104D10000E941E25CF70C093E900CF9108950E9494
:104D20008C231092A7020895E8EDF0E08081806165
:104D300080838AE18A95F1F700C08091D900817063
:104D40000895AA1BBB1B51E107C0AA1FBB1FA617D2
:104D5000B70710F0A61BB70B881F991F5A95A9F724
:104D600080959095BC01CD01089597FB072E16F410
:104D7000009407D077FD09D00E94A12607FC05D03A
:104D80003EF4909581959F4F0895709561957F4F62
:104D90000895EE0FFF1F0590F491E02D09942F92D6
:104DA0003F924F925F926F927F928F929F92AF92BB
:104DB000BF92CF92DF92EF92FF920F931F93CF9308
:104DC000DF93CDB7DEB7CA1BDB0B0FB6F894DEBF9F
:104DD0000FBECDBF09942A88398848885F846E84C5
:104DE0007D848C849B84AA84B984C884DF80EE800F
:104DF000FD800C811B81AA81B981CE0FD11D0FB618
:104E0000F894DEBF0FBECDBFED010895FB01DC01BC
:104E100004C08D910190801921F441505040C8F791
:104E2000881B990B0895FB01DC0102C001900D92D3
:104E300041505040D8F70895F999FECF92BD81BDF9
:104E4000F89A992780B50895A8E1B0E042E050E0D3
:104E50000C945027262FF999FECF92BD81BDF89A68
:104E6000019700B4021639F01FBA20BD0FB6F894AE
:104E7000FA9AF99A0FBE08950396272F0E942B27BE
:104E80000E942A27252F0E942B27242F0C942B27A2
:104E90000196272F0E942B270C942A27DC01CB0197
:104EA000FC01F999FECF06C0F2BDE1BDF89A31963A
:104EB00000B40D9241505040B8F70895F894FFCFD8
:104EC0001C02946697C63435363233310101000036
:104ED00000000000000000000101000000000000D0
:104EE0000402000000040600000000000028085032
:104EF000011E0A1401C81FEB1FCC1F47204220CB04
:104F00001F013534C69737323331F7F6E200E90036
:104F1000EA00B500B600B700CD008301CC008A01DD
:104F20009201940121022302240225022602270273
:104F30002A02B300B4006F007000818283E200E9AE
:104F400000EA00B500B600B700CD008301CC008AAE
:104F50000192019401210223022402250226022744
:104F6000022A02B300B4006F0070008182839502B0
:00000001FF
